:020000040000fa
:080000000002040000000000f2
:020000040000fa
:04000800c80200002a
:020000040000fa
:04000c00c802000026
:020000040000fa
:04001000c802000022
:020000040000fa
:04001400c80200001e
:020000040000fa
:04001800c80200001a
:020000040000fa
:04001c00c802000016
:020000040000fa
:04002000c802000012
:020000040000fa
:04002400c80200000e
:020000040000fa
:04002800c80200000a
:020000040000fa
:04002c00c802000006
:020000040000fa
:04003000c802000002
:020000040000fa
:04003400c8020000fe
:020000040000fa
:04003800c8020000fa
:020000040000fa
:04003c00c8020000f6
:020000040000fa
:04004000c8020000f2
:020000040000fa
:04004400c8020000ee
:020000040000fa
:04004800c8020000ea
:020000040000fa
:04004c00c8020000e6
:020000040000fa
:04005000c8020000e2
:020000040000fa
:04005400c8020000de
:020000040000fa
:04005800c8020000da
:020000040000fa
:04005c00c8020000d6
:020000040000fa
:04006000c8020000d2
:020000040000fa
:04006400c8020000ce
:020000040000fa
:04006800c8020000ca
:020000040000fa
:04006c00c8020000c6
:020000040000fa
:04007000c8020000c2
:020000040000fa
:04007400c8020000be
:020000040000fa
:04007800c8020000ba
:020000040000fa
:04007c00c8020000b6
:020000040000fa
:04008000c8020000b2
:020000040000fa
:04008400c8020000ae
:020000040000fa
:04008800c8020000aa
:020000040000fa
:04008c00c8020000a6
:020000040000fa
:04009000c8020000a2
:020000040000fa
:04009400c80200009e
:020000040000fa
:04009800c80200009a
:020000040000fa
:04009c00c802000096
:020000040000fa
:0400a000c802000092
:020000040000fa
:0400a400c80200008e
:020000040000fa
:0400a800c80200008a
:020000040000fa
:0400ac00c802000086
:020000040000fa
:0400b000c802000082
:020000040000fa
:0400b400c80200007e
:020000040000fa
:0400b800c80200007a
:020000040000fa
:0400bc00c802000076
:020000040000fa
:0400c000c802000072
:020000040000fa
:0400c400c80200006e
:020000040000fa
:0400c800c80200006a
:020000040000fa
:0400cc00c802000066
:020000040000fa
:0400d000c802000062
:020000040000fa
:0400d400c80200005e
:020000040000fa
:0400d800c80200005a
:020000040000fa
:0400dc00c802000056
:020000040000fa
:0400e000c802000052
:020000040000fa
:0400e400c80200004e
:020000040000fa
:0400e800c80200004a
:020000040000fa
:0400ec00c802000046
:020000040000fa
:0400f000c802000042
:020000040000fa
:0400f400c80200003e
:020000040000fa
:0400f800c80200003a
:020000040000fa
:0400fc00c802000036
:020000040000fa
:04010000c802000031
:020000040000fa
:04010400c80200002d
:020000040000fa
:04010800c802000029
:020000040000fa
:04010c00c802000025
:020000040000fa
:04011000c802000021
:020000040000fa
:04011400c80200001d
:020000040000fa
:04011800c802000019
:020000040000fa
:04011c00c802000015
:020000040000fa
:04012000c802000011
:020000040000fa
:04012400c80200000d
:020000040000fa
:04012800c802000009
:020000040000fa
:04012c00c802000005
:020000040000fa
:04013000c802000001
:020000040000fa
:04013400c8020000fd
:020000040000fa
:04020800c802000028
:020000040000fa
:04020c00c802000024
:020000040000fa
:04021000c802000020
:020000040000fa
:04021400c80200001c
:020000040000fa
:04021800c802000018
:020000040000fa
:04021c00c802000014
:020000040000fa
:04022000c802000010
:020000040000fa
:04022400c80200000c
:020000040000fa
:04022800c802000008
:020000040000fa
:04022c00c802000004
:020000040000fa
:04023000c802000000
:020000040000fa
:04023400c8020000fc
:020000040000fa
:04023800c8020000f8
:020000040000fa
:04023c00c8020000f4
:020000040000fa
:04024000c8020000f0
:020000040000fa
:04024400c8020000ec
:020000040000fa
:04024800c8020000e8
:020000040000fa
:04024c00c8020000e4
:020000040000fa
:04025000c8020000e0
:020000040000fa
:04025400c8020000dc
:020000040000fa
:04025800c8020000d8
:020000040000fa
:04025c00c8020000d4
:020000040000fa
:04026000c8020000d0
:020000040000fa
:04026400c8020000cc
:020000040000fa
:04026800c8020000c8
:020000040000fa
:04026c00c8020000c4
:020000040000fa
:04027000c8020000c0
:020000040000fa
:04027400c8020000bc
:020000040000fa
:04027800c8020000b8
:020000040000fa
:04027c00c8020000b4
:020000040000fa
:04028000c8020000b0
:020000040000fa
:04028400c8020000ac
:020000040000fa
:04028800c8020000a8
:020000040000fa
:04028c00c8020000a4
:020000040000fa
:04029000c8020000a0
:020000040000fa
:04029400c80200009c
:020000040000fa
:04029800c802000098
:020000040000fa
:04029c00c802000094
:020000040000fa
:0402a000c802000090
:020000040000fa
:0402a400c80200008c
:020000040000fa
:0402a800c802000088
:020000040000fa
:0402ac00c802000084
:020000040000fa
:0402b000c802000080
:020000040000fa
:0402b400c80200007c
:020000040000fa
:0402b800c802000078
:020000040000fa
:0402bc00c802000074
:020000040000fa
:0402c000c802000070
:020000040000fa
:0402c400c80200006c
:020000040000fa
:0402c800c802000068
:020000040000fa
:0402cc00c802000064
:020000040000fa
:0402d000c802000060
:020000040000fa
:0402d400c80200005c
:020000040000fa
:0402d800c802000058
:020000040000fa
:0402dc00c802000054
:020000040000fa
:0402e000c802000050
:020000040000fa
:0402e400c80200004c
:020000040000fa
:0402e800c802000048
:020000040000fa
:0402ec00c802000044
:020000040000fa
:0402f000c802000040
:020000040000fa
:0402f400c80200003c
:020000040000fa
:0402f800c802000038
:020000040000fa
:0402fc00c802000034
:020000040000fa
:04030000c80200002f
:020000040000fa
:04030400c80200002b
:020000040000fa
:04030800c802000027
:020000040000fa
:04030c00c802000023
:020000040000fa
:04031000c80200001f
:020000040000fa
:04031400c80200001b
:020000040000fa
:04031800c802000017
:020000040000fa
:04031c00c802000013
:020000040000fa
:04032000c80200000f
:020000040000fa
:04032400c80200000b
:020000040000fa
:04032800c802000007
:020000040000fa
:04032c00c802000003
:020000040000fa
:04033000c8020000ff
:020000040000fa
:04033400c8020000fb
:020000040000fa
:100400004f8020000e7f22000e01880000000000b7
:10041000000020000000e000020032000001200087
:100420002002880014000700650007000000e000bb
:1004300003003a0060652000010020000200370040
:100440000000200001002000810f70000100320038
:1004500014000700000020000000e000020032004d
:100460000000020000000000820502000000000001
:100470000040da000000fe004440a9008001200096
:100480000000e0000300320000002000a00188000e
:100490004440a800000006008a1f78008b1f7800e7
:1004a0000000060091018800800478000000eb0045
:1004b0001a003700e284440032a0b4009905ba0063
:1004c000e284440032a0b4009906ba00e2844400f9
:1004d00032a0b4000006eb00476fde00fd07b2005b
:1004e000636ce10003003a00ebff07000000eb0043
:1004f0000a003700606ce10004003a00005deb0088
:100500008b05e900fdff3e00040037006168e10053
:10051000010032000086eb000b00070019c7ba008b
:100520001905ba000e04e00003003a000a00e000da
:10053000e0ff3a0000000600fe07b2009e018800be
:100540008a047800f5ff3700395dba008b05e900b1
:100550000c003200295dba008b05e900080032006a
:100560000c00e00003003a00e284440032a0b40032
:10057000f5ff370019ddba008b05e900faff3a00f4
:100580008904e800e184440032a0b40000000600c1
:100590000040da000000fe000600fa00000f7800bc
:1005a00011079800220798001e009000ae009000ee
:1005b0003f0007002e0090000080fa0000000600b7
:0405c0000000050032
:020000040000fa
:1005c4004b4100004e410000504b00004120000010
:1005d4005a200000535a0000594e00004b410000bd
:1005e400202d0000203300002e39000039000000c7
:020000040000fa
:1005f4000000fa00f03f2000103088003038280056
:10060400003088001000200060308800008823003b
:1006140011002000180107000088230011002000a9
:10062400150107000426ef00300320004030880045
:1006340050032000010020000f0107000426ef00f2
:1006440020032000403088005003200001002000d7
:10065400090107000426ef008003200040308800d1
:100664005003200001002000030107000426ef00ce
:10067400c00020004030880050032000010020000a
:10068400fd0007000426ef006000200040308800d1
:100694005003200001002000f70007006d00070050
:1006a40010c0b3000080fa00000006000400fa0045
:1006b400000f7800110798000a0037001e00780028
:1006c400104078000000fb000000e0001100320040
:1006d4001e007800104078001e0fe800100007008c
:1006e400000000001e00900000f0a7000000ea00d7
:1006f4000000ea004f00de00004078009e009000f9
:100704008100e900110798000004e000ebff3a00c3
:1007140001003700000000000080fa00000006001d
:100724000200fa00004f78001e00fb00ea0f5000a0
:100734000e003200ea0f500003003c00e80f5000a6
:10074400150032001b003700ec0f50001700320078
:10075400ed0f500017003a0002c8bf00ea4f5000e6
:10076400360032004c0007003500370002c8bf00d5
:10077400ed4f5000010032004700070000c8bf00e1
:100784000004e00002003a00b00007002c0037002b
:10079400a30007002a0037005300070000c2b3007b
:1007a400dfff07005000070025003700290007007d
:1007b4002300370001c8bf00f04f500014003a0076
:1007c4000168ef0000c8bf000004e00009003a001f
:1007d4000426ef00000c2000403088005003200065
:1007e40001002000a400070010c0b30000e8b70017
:1007f400070037000426ef0000082000403088007e
:1008040050032000010020009b0007000068ef0057
:1008140010002000203088001e00fb0040308800bb
:1008240050032000010020009300070001c8bf000e
:100834000040e80001e8b7000100370000000000b4
:100844001e41780021802000824878000080fa0050
:10085400000006000000fa000426ef00100020004b
:1008640040308800a088200001002000820007009a
:100874000426ef002000200040308800a0882000db
:10088400010020007c0007000068ef000168ef0011
:100894000080fa00000006000000fa0000c8bf0053
:1008a4000004e00007003a000426ef0000082000de
:1008b4004030880050032000010020006e00070033
:1008c400060037000426ef00000c200040308800aa
:1008d4005003200001002000670007000168ef00ba
:1008e4000080fa00000006000200fa0001c8bf0000
:1008f4000004e0001c003a0000c8bf000004e0004f
:1009040009003a000426ef00000c20004030880063
:1009140050032000010020005700070010c0b3005e
:1009240000e8b700070037000426ef0000082000a5
:100934004030880050032000010020004e000700d2
:100944000068ef000040eb00004f78000200370021
:10095400100007001e4fe8001e407800ee4f5000c4
:10096400fbff36000900370001c8bf000040e90062
:1009740001e8b7000426ef000001200040308800a1
:1009840050032000010020003b0007000080fa0013
:10099400000006000000fa000426ef0040012000d9
:1009a400403088005003200001002000320007007e
:1009b40001c8bf000040e80001e8b70001c8bf005b
:1009c400f04f500014003a000168ef0000c8bf0067
:1009d4000004e00009003a000426ef00000c2000a7
:1009e400403088005003200001002000220007004e
:1009f40010c0b30000e8b700070037000426ef007a
:100a0400000820004030880050032000010020002e
:100a1400190007000068ef000080fa0000000600db
:100a24000200fa000040eb00004f7800020037009b
:100a3400adff07001e4fe8001e407800ef4f500046
:100a4400fbff36000080fa00000006000200fa00f6
:100a54000040eb00004f780002003700cdff070094
:100a64001e4fe8001e407800ef4f5000fbff360099
:100a74000080fa00000006000400fa00008fbe00a7
:100a840005003700000000000081eb008081eb00ce
:100a94001e0f41005e9749001e00be00e00f50008b
:100aa400e08f5800f7ff3a000080fa0000000600cb
:100ab4000200fa00004f78001e4078000004e000b5
:100ac400070032000426ef00f000200040308800c8
:100ad4005003200001002000e7ff07000600370054
:100ae4000426ef00c000200040308800500320009e
:100af40001002000e0ff07000080fa00000006006b
:100b04002a00fa00bafe0700680047000225250003
:100b1400f3d424000288be0064004000f2342400b0
:100b2400a31424000288be006400400011022000c7
:100b3400010878000080e800900020002007980059
:100b440000012000000f78001900370041ff070062
:100b54001e007800ef0f500011003c002e009000a2
:100b64000000ea009e0f50000d003c002e00900093
:100b74001e004000800078001e0078000000e000a5
:100b840003003d001e0078000000ea000100370069
:100b94000000eb006801470000004100c3fe0700ad
:100ba40000122a0071002000310007001e0fe90026
:100bb4002e0090000000ea009e0f5000e3ff340076
:100bc400f2004700222e280017000900b2587800ce
:100bd40070012000300798000001200010079800e1
:100be4001d0037001bff07001e009000ef0f500090
:100bf40013003c003e0090008000ea001e009000bc
:100c0400808f50000e003c00be0090001e0090003b
:100c140000804000800078001e0090000000e0008a
:100c240003003d001e0090000000ea0001003700b0
:100c34000000eb0072014700000041009bfe07002a
:100c440000122a0071002000090007001e00900015
:100c54000000e900100798003e0090008000ea00c0
:100c64001e009000808f5000deff3400a6ff370086
:020000040000fa
:100c7400f03fb1000180b10006003500ee03090029
:100c840000000000403fb1000180b100fbff3d00c7
:100c94001000b000203fb0000200350000800900c1
:080ca400000000000000060042
:020000040000fa
:100cac00000800000400000000000000000000002c
:020000040000fa
:020000040002f8
:04aff8009dfa0000be
:020000040000fa
:020000040002f8
:04affc007f3f000093
:00000001FF
