:020000040000fa
:080000000002040000000000f2
:020000040000fa
:04000800cc02000026
:020000040000fa
:04000c00cc02000022
:020000040000fa
:04001000cc0200001e
:020000040000fa
:04001400cc0200001a
:020000040000fa
:04001800cc02000016
:020000040000fa
:04001c00cc02000012
:020000040000fa
:04002000cc0200000e
:020000040000fa
:04002400cc0200000a
:020000040000fa
:04002800cc02000006
:020000040000fa
:04002c00cc02000002
:020000040000fa
:04003000cc020000fe
:020000040000fa
:04003400cc020000fa
:020000040000fa
:04003800cc020000f6
:020000040000fa
:04003c00cc020000f2
:020000040000fa
:04004000cc020000ee
:020000040000fa
:04004400cc020000ea
:020000040000fa
:04004800cc020000e6
:020000040000fa
:04004c00cc020000e2
:020000040000fa
:04005000cc020000de
:020000040000fa
:04005400cc020000da
:020000040000fa
:04005800cc020000d6
:020000040000fa
:04005c00cc020000d2
:020000040000fa
:04006000cc020000ce
:020000040000fa
:04006400cc020000ca
:020000040000fa
:04006800cc020000c6
:020000040000fa
:04006c00cc020000c2
:020000040000fa
:04007000cc020000be
:020000040000fa
:04007400cc020000ba
:020000040000fa
:04007800cc020000b6
:020000040000fa
:04007c00cc020000b2
:020000040000fa
:04008000cc020000ae
:020000040000fa
:04008400cc020000aa
:020000040000fa
:04008800cc020000a6
:020000040000fa
:04008c00cc020000a2
:020000040000fa
:04009000cc0200009e
:020000040000fa
:04009400cc0200009a
:020000040000fa
:04009800cc02000096
:020000040000fa
:04009c00cc02000092
:020000040000fa
:0400a000cc0200008e
:020000040000fa
:0400a400cc0200008a
:020000040000fa
:0400a800cc02000086
:020000040000fa
:0400ac00cc02000082
:020000040000fa
:0400b000cc0200007e
:020000040000fa
:0400b400cc0200007a
:020000040000fa
:0400b800cc02000076
:020000040000fa
:0400bc00cc02000072
:020000040000fa
:0400c000cc0200006e
:020000040000fa
:0400c400cc0200006a
:020000040000fa
:0400c800cc02000066
:020000040000fa
:0400cc00cc02000062
:020000040000fa
:0400d000cc0200005e
:020000040000fa
:0400d400cc0200005a
:020000040000fa
:0400d800cc02000056
:020000040000fa
:0400dc00cc02000052
:020000040000fa
:0400e000cc0200004e
:020000040000fa
:0400e400cc0200004a
:020000040000fa
:0400e800cc02000046
:020000040000fa
:0400ec00cc02000042
:020000040000fa
:0400f000cc0200003e
:020000040000fa
:0400f400cc0200003a
:020000040000fa
:0400f800cc02000036
:020000040000fa
:0400fc00cc02000032
:020000040000fa
:04010000cc0200002d
:020000040000fa
:04010400cc02000029
:020000040000fa
:04010800cc02000025
:020000040000fa
:04010c00cc02000021
:020000040000fa
:04011000cc0200001d
:020000040000fa
:04011400cc02000019
:020000040000fa
:04011800cc02000015
:020000040000fa
:04011c00cc02000011
:020000040000fa
:04012000cc0200000d
:020000040000fa
:04012400cc02000009
:020000040000fa
:04012800cc02000005
:020000040000fa
:04012c00cc02000001
:020000040000fa
:04013000cc020000fd
:020000040000fa
:04013400cc020000f9
:020000040000fa
:04020800cc02000024
:020000040000fa
:04020c00cc02000020
:020000040000fa
:04021000cc0200001c
:020000040000fa
:04021400cc02000018
:020000040000fa
:04021800cc02000014
:020000040000fa
:04021c00cc02000010
:020000040000fa
:04022000cc0200000c
:020000040000fa
:04022400cc02000008
:020000040000fa
:04022800cc02000004
:020000040000fa
:04022c00cc02000000
:020000040000fa
:04023000cc020000fc
:020000040000fa
:04023400cc020000f8
:020000040000fa
:04023800cc020000f4
:020000040000fa
:04023c00cc020000f0
:020000040000fa
:04024000cc020000ec
:020000040000fa
:04024400cc020000e8
:020000040000fa
:04024800cc020000e4
:020000040000fa
:04024c00cc020000e0
:020000040000fa
:04025000cc020000dc
:020000040000fa
:04025400cc020000d8
:020000040000fa
:04025800cc020000d4
:020000040000fa
:04025c00cc020000d0
:020000040000fa
:04026000cc020000cc
:020000040000fa
:04026400cc020000c8
:020000040000fa
:04026800cc020000c4
:020000040000fa
:04026c00cc020000c0
:020000040000fa
:04027000cc020000bc
:020000040000fa
:04027400cc020000b8
:020000040000fa
:04027800cc020000b4
:020000040000fa
:04027c00cc020000b0
:020000040000fa
:04028000cc020000ac
:020000040000fa
:04028400cc020000a8
:020000040000fa
:04028800cc020000a4
:020000040000fa
:04028c00cc020000a0
:020000040000fa
:04029000cc0200009c
:020000040000fa
:04029400cc02000098
:020000040000fa
:04029800cc02000094
:020000040000fa
:04029c00cc02000090
:020000040000fa
:0402a000cc0200008c
:020000040000fa
:0402a400cc02000088
:020000040000fa
:0402a800cc02000084
:020000040000fa
:0402ac00cc02000080
:020000040000fa
:0402b000cc0200007c
:020000040000fa
:0402b400cc02000078
:020000040000fa
:0402b800cc02000074
:020000040000fa
:0402bc00cc02000070
:020000040000fa
:0402c000cc0200006c
:020000040000fa
:0402c400cc02000068
:020000040000fa
:0402c800cc02000064
:020000040000fa
:0402cc00cc02000060
:020000040000fa
:0402d000cc0200005c
:020000040000fa
:0402d400cc02000058
:020000040000fa
:0402d800cc02000054
:020000040000fa
:0402dc00cc02000050
:020000040000fa
:0402e000cc0200004c
:020000040000fa
:0402e400cc02000048
:020000040000fa
:0402e800cc02000044
:020000040000fa
:0402ec00cc02000040
:020000040000fa
:0402f000cc0200003c
:020000040000fa
:0402f400cc02000038
:020000040000fa
:0402f800cc02000034
:020000040000fa
:0402fc00cc02000030
:020000040000fa
:04030000cc0200002b
:020000040000fa
:04030400cc02000027
:020000040000fa
:04030800cc02000023
:020000040000fa
:04030c00cc0200001f
:020000040000fa
:04031000cc0200001b
:020000040000fa
:04031400cc02000017
:020000040000fa
:04031800cc02000013
:020000040000fa
:04031c00cc0200000f
:020000040000fa
:04032000cc0200000b
:020000040000fa
:04032400cc02000007
:020000040000fa
:04032800cc02000003
:020000040000fa
:04032c00cc020000ff
:020000040000fa
:04033000cc020000fb
:020000040000fa
:04033400cc020000f7
:020000040000fa
:100400004f8220000e7f22000e01880000000000b5
:10041000000020000000e000020032000001200087
:100420002002880014000700670007000000e000b9
:1004300003003a00c08820000100200002003700bd
:100440000000200001002000810f70000100320038
:1004500014000700000020000000e000020032004d
:100460000000020000000000ca05020000000000b9
:100470000040da000000fe004440a9008004200093
:100480000000e0000300320000002000a00188000e
:100490004440a800000006008a1f78008b1f7800e7
:1004a0000000060091018800800478000000eb0045
:1004b0001a003700e284440032a0b4009905ba0063
:1004c000e284440032a0b4009906ba00e2844400f9
:1004d00032a0b4000006eb00476fde00fd07b2005b
:1004e000636ce10003003a00ebff07000000eb0043
:1004f0000a003700606ce10004003a00005deb0088
:100500008b05e900fdff3e00040037006168e10053
:10051000010032000086eb000b00070019c7ba008b
:100520001905ba000e04e00003003a000a00e000da
:10053000e0ff3a0000000600fe07b2009e018800be
:100540008a047800f5ff3700395dba008b05e900b1
:100550000c003200295dba008b05e900080032006a
:100560000c00e00003003a00e284440032a0b40032
:10057000f5ff370019ddba008b05e900faff3a00f4
:100580008904e800e184440032a0b40000000600c1
:1005900018040400000000000040da000000fe0023
:1005a0000600fa00000f7800110798002207980053
:1005b0001e009000ae009000c20107002e009000c7
:1005c0000080fa0000000600000005006022b8006c
:1005d000060220000000d0008180d2000482d200f8
:1005e0008582d2000000a0000202520083825a00dd
:1005f000030031000202420083824a000000a10091
:0c0600000603e900f3ff3a0000000600ca
:020000040000fa
:10060c00505200004f4d00004f4300004a41000083
:10061c0021200000202000002020000020200000cd
:10062c0020000000202000002020000020200000de
:10063c00202000004a5500005a20000054590000a8
:10064c004c4b00004f200000445a0000495300005e
:10065c000020000020200000205300005a59000008
:10066c004e4b000041200000504900004543000063
:10067c005a4f00004e410000202d00002033000096
:10068c002c390000392000005a4c000000000000fa
:020000040000fa
:10069c000400fa00008fbe009e0090000090200025
:1006ac000088b900000178009e007800d00320007b
:1006bc000088b90000007800000141009e0078001d
:1006cc00009020000008b800010141008200780071
:1006dc0002242400f3002000b9ff07009d0207004c
:1006ec000080fa00000006000400fa00008fbe0033
:1006fc009e009000009020000088b9000001780056
:10070c009e007800d00320000088b900000078001b
:10071c00000141009e007800009020000008b80005
:10072c000101410082007800823e2000030020007d
:10073c00a3ff0700870207000080fa0000000600f4
:10074c000200fa00004f7800d6a2a900cbe2a90063
:10075c00d682a8001e80fb00e01688002003200033
:10076c0001002000caff0700d682a9000080fa0011
:10077c00000006000200fa00004f7800d6a2a90083
:10078c00cbe2a800d682a8001e80fb00e0168800f1
:10079c002003200001002000bdff0700d682a90025
:1007ac000080fa00000006000200fa00000f78003a
:1007bc00040037001e007800104078001e0fe8007f
:1007cc00ecff07001e007800104078000004e000e9
:1007dc00f8ff3a000080fa00000006000400fa005e
:1007ec0020479800824120002e4090000080fb00a2
:1007fc008000eb00020001000000eb00000f78000d
:10080c000300370000c2b300daff07001e0fe80038
:10081c001e007800ef0f5000faff34000080fa0041
:10082c00000006000400fa002047980031479800a9
:10083c002e409000e14f500004003a00be40900062
:10084c0000c8b30000cf4000060037002e409000d7
:10085c00e24f500003003a00be40900000ccb300c1
:10086c0000cf40001e407800b5ff07000080fa0062
:10087c00000006000000fa004001200001002000ea
:10088c0099ff070080c3b300adff070020032000d1
:10089c00010020007eff0700c0c0b300a8ff0700c6
:1008ac00200320000100200079ff070010c0b300d6
:1008bc00a3ff070020002000010020008aff070092
:1008cc000080fa00000006000600fa00204798009d
:1008dc00210798002e4090000080fb00680040002b
:1008ec00004078004300dd0095ff07000040eb005e
:1008fc00004f7800060037001e80fb00ae00900011
:10090c0000804000104078009aff07001e4fe8005e
:10091c001e407800e74f5000f7ff36000080fa00c9
:10092c00000006000800fa0060302800200798003c
:10093c0080312800300798000000eb00000f780091
:10094c000f0037001e0078000040780080407800cf
:10095c0010c0b300b3ff0700ae0090001e0078007b
:10096c000080400090ff0700c01220000100200012
:10097c005dff070010c0b30098ff07001e0fe800d2
:10098c001e007800e70f5000eeff3400000120003d
:10099c0010079800130037001e009000ef0f500056
:1009ac0008003c001e009000004078008040780059
:1009bc0020c0b3009bff07003e0090006800400081
:1009cc0079ff0700c01220000100200046ff07003d
:1009dc0020c0b30081ff07001e0090000000e9005a
:1009ec00100798001e0090000000e000eaff3d0098
:1009fc000080fa00000006000a00fa00f03228001d
:100a0c0020079800d0012000300798000000eb0070
:100a1c00000f78005600370010c0b30048ff0700e5
:100a2c000000eb00100798001a0037001e00900021
:100a3c001e004000700050000000e0001200350065
:100a4c001e0090001e004000f00050003e00900080
:100a5c00808f50000c003d001e009000004078007c
:100a6c008040780010c0b3006eff07001e0090009d
:100a7c001e00400070005000ae009000008040004e
:100a8c00104078003bff07001e0090000000e800bb
:100a9c00100798001e009000ef0f5000e3ff340089
:100aac003e009000640050009e0f50002c003c0053
:100abc003e009000700040009e0f50002800340053
:100acc003e0090001e00500070004000400798004f
:100adc004e0090000000e000210035004e00900018
:100aec00ef0f50001e003c004e00900000407800bc
:100afc008040780010c0b3004aff07000040eb00b4
:100b0c001cff07004e0090000040780080407800e9
:100b1c0020c0b30043ff070020c0b30015ff07003f
:100b2c004e009000004078000040e80080407800c3
:100b3c0010c0b3003bff070010c0b3000dff07004f
:100b4c004e009000004078000040e80080407800a3
:100b5c0020c0b30033ff070030c0b30005ff07000f
:100b6c000019200001002000dffe07001e0fe80026
:100b7c003e009000720040009e0f5000a6ff3c000b
:100b8c000080fa00000006000000fa00f0ff2700c9
:100b9c0030168800d222ef00d822ef0035ff070074
:100bac00418020000040eb0047ff0700c18020007f
:100bbc0010c0b30044ff07004181200020c0b300e7
:100bcc0041ff0700c181200030c0b3003eff070089
:100bdc0054ff070088ff0700007d20000100200063
:100bec00c1fe070010c0b300d5fe0700401f200057
:100bfc0001002000bcfe0700f5ff37000000fa00e2
:100c0c00f03f200010308800303828000030880079
:100c1c0010002000603088000088230011002000a4
:100c2c00180107000088230011002000150107009f
:100c3c000426ef00300320004030880050032000d1
:100c4c00010020000f0107000426ef002003200004
:100c5c0040308800500320000100200009010700eb
:100c6c000426ef0080032000403088005003200051
:100c7c0001002000030107000426ef00c000200043
:100c8c00403088005003200001002000fd000700c8
:100c9c000426ef0060002000403088005003200044
:100cac0001002000f70007006d00070010c0b30022
:100cbc000080fa00000006000400fa00000f780023
:100ccc00110798000a0037001e00780010407800c9
:100cdc000000fb000000e000110032001e00780054
:100cec00104078001e0fe800100007000000000004
:100cfc001e00900000f0a7000000ea000000ea00cf
:100d0c004f00de00004078009e0090008100e9005a
:100d1c00110798000004e000ebff3a0001003700d7
:100d2c00000000000080fa00000006000200fa003b
:100d3c00004f78001e00fb00ea0f50000e0032003e
:100d4c00ea0f500003003c00e80f50001500320081
:100d5c001b003700ec0f500017003200ed0f500055
:100d6c0017003a0002c8bf00ea4f500036003200ac
:100d7c004c0007003500370002c8bf00ed4f500093
:100d8c00010032004700070000c8bf000004e0006b
:100d9c0002003a00b00007002c003700a300070047
:100dac002a0037005300070000c2b300dfff070022
:100dbc0050000700250037002900070023003700ea
:100dcc0001c8bf00f04f500014003a000168ef005a
:100ddc0000c8bf000004e00009003a000426ef0040
:100dec00000c20004030880050032000010020003f
:100dfc00a400070010c0b30000e8b70007003700dc
:100e0c000426ef000008200040308800500320002a
:100e1c00010020009b0007000068ef00100020007c
:100e2c00203088001e00fb0040308800500320005a
:100e3c00010020009300070001c8bf000040e8003b
:100e4c0001e8b70001003700000000001e417800e7
:100e5c0021802000824878000080fa000000060003
:100e6c000000fa000426ef0010002000403088003b
:100e7c00a088200001002000820007000426ef005b
:100e8c002000200040308800a088200001002000b5
:100e9c007c0007000068ef000168ef000080fa009a
:100eac00000006000000fa0000c8bf000004e000cb
:100ebc0007003a000426ef000008200040308800ac
:100ecc0050032000010020006e00070006003700d0
:100edc000426ef00000c2000403088005003200056
:100eec0001002000670007000168ef000080fa0095
:100efc00000006000200fa0001c8bf000004e00078
:100f0c001c003a0000c8bf000004e00009003a00d1
:100f1c000426ef00000c2000403088005003200015
:100f2c00010020005700070010c0b30000e8b70014
:100f3c00070037000426ef0000082000403088002e
:100f4c0050032000010020004e0007000068ef0055
:100f5c000040eb00004f7800020037001000070043
:100f6c001e4fe8001e407800ee4f5000fbff36008d
:100f7c000900370001c8bf000040e90001e8b700d4
:100f8c000426ef00000120004030880050032000b0
:100f9c00010020003b0007000080fa000000060062
:100fac000000fa000426ef004001200040308800c9
:100fbc0050032000010020003200070001c8bf00d0
:100fcc000040e80001e8b70001c8bf00f04f500036
:100fdc0014003a000168ef0000c8bf000004e000f4
:100fec0009003a000426ef00000c20004030880075
:100ffc0050032000010020002200070010c0b300a5
:10100c0000e8b700070037000426ef0000082000b6
:10101c004030880050032000010020001900070018
:10102c000068ef000080fa00000006000200fa00e1
:10103c000040eb00004f780002003700adff0700c6
:10104c001e4fe8001e407800ef4f5000fbff3600ab
:10105c000080fa00000006000200fa000040eb00dd
:10106c00004f780002003700cdff07001e4fe8004c
:10107c001e407800ef4f5000fbff36000080fa0056
:10108c00000006000400fa00008fbe0005003700c7
:10109c00000000000081eb008081eb001e0f41007e
:1010ac005e9749001e00be00e00f5000e08f580014
:1010bc00f7ff3a000080fa00000006000200fa0078
:1010cc00004f78001e4078000004e000070032005a
:1010dc000426ef00f0002000403088005003200070
:1010ec0001002000e7ff0700060037000426ef0090
:1010fc00c000200040308800500320000100200078
:0c110c00e0ff07000080fa000000060071
:020000040000fa
:10111800040800002000000002000000000307008f
:10112800070311001f0000001018180018101c00f9
:101138000001030007070300010700001c1c1c0036
:101148001e0e020006000000000800000400000057
:0811580000000000000000008f
:020000040000fa
:10116000f03fb1000180b10006003500ee03090038
:1011700000000000403fb1000180b100fbff3d00d6
:101180001000b000203fb0000200350000800900d0
:08119000000000000000060051
:00000001FF
