:020000040000fa
:080000000002040000000000f2
:020000040000fa
:04000800d80200001a
:020000040000fa
:04000c00d802000016
:020000040000fa
:04001000d802000012
:020000040000fa
:04001400d80200000e
:020000040000fa
:04001800d80200000a
:020000040000fa
:04001c00d802000006
:020000040000fa
:04002000d802000002
:020000040000fa
:04002400d8020000fe
:020000040000fa
:04002800d8020000fa
:020000040000fa
:04002c00d8020000f6
:020000040000fa
:04003000d8020000f2
:020000040000fa
:04003400d8020000ee
:020000040000fa
:04003800d8020000ea
:020000040000fa
:04003c00d8020000e6
:020000040000fa
:04004000d8020000e2
:020000040000fa
:04004400d8020000de
:020000040000fa
:04004800d8020000da
:020000040000fa
:04004c00d8020000d6
:020000040000fa
:04005000d8020000d2
:020000040000fa
:04005400d8020000ce
:020000040000fa
:04005800d8020000ca
:020000040000fa
:04005c00d8020000c6
:020000040000fa
:04006000d8020000c2
:020000040000fa
:04006400d8020000be
:020000040000fa
:04006800d8020000ba
:020000040000fa
:04006c00d8020000b6
:020000040000fa
:04007000d8020000b2
:020000040000fa
:04007400d8020000ae
:020000040000fa
:04007800d8020000aa
:020000040000fa
:04007c00d8020000a6
:020000040000fa
:04008000d8020000a2
:020000040000fa
:04008400d80200009e
:020000040000fa
:04008800d80200009a
:020000040000fa
:04008c00d802000096
:020000040000fa
:04009000d802000092
:020000040000fa
:04009400d80200008e
:020000040000fa
:04009800d80200008a
:020000040000fa
:04009c00d802000086
:020000040000fa
:0400a000d802000082
:020000040000fa
:0400a400d80200007e
:020000040000fa
:0400a800d80200007a
:020000040000fa
:0400ac00d802000076
:020000040000fa
:0400b000d802000072
:020000040000fa
:0400b400d80200006e
:020000040000fa
:0400b800d80200006a
:020000040000fa
:0400bc00d802000066
:020000040000fa
:0400c000d802000062
:020000040000fa
:0400c400d80200005e
:020000040000fa
:0400c800d80200005a
:020000040000fa
:0400cc00d802000056
:020000040000fa
:0400d000d802000052
:020000040000fa
:0400d400d80200004e
:020000040000fa
:0400d800d80200004a
:020000040000fa
:0400dc00d802000046
:020000040000fa
:0400e000d802000042
:020000040000fa
:0400e400d80200003e
:020000040000fa
:0400e800d80200003a
:020000040000fa
:0400ec00d802000036
:020000040000fa
:0400f000d802000032
:020000040000fa
:0400f400d80200002e
:020000040000fa
:0400f800d80200002a
:020000040000fa
:0400fc00d802000026
:020000040000fa
:04010000d802000021
:020000040000fa
:04010400d80200001d
:020000040000fa
:04010800d802000019
:020000040000fa
:04010c00d802000015
:020000040000fa
:04011000d802000011
:020000040000fa
:04011400d80200000d
:020000040000fa
:04011800d802000009
:020000040000fa
:04011c00d802000005
:020000040000fa
:04012000d802000001
:020000040000fa
:04012400d8020000fd
:020000040000fa
:04012800d8020000f9
:020000040000fa
:04012c00d8020000f5
:020000040000fa
:04013000d8020000f1
:020000040000fa
:04013400d8020000ed
:020000040000fa
:04020800d802000018
:020000040000fa
:04020c00d802000014
:020000040000fa
:04021000d802000010
:020000040000fa
:04021400d80200000c
:020000040000fa
:04021800d802000008
:020000040000fa
:04021c00d802000004
:020000040000fa
:04022000d802000000
:020000040000fa
:04022400d8020000fc
:020000040000fa
:04022800d8020000f8
:020000040000fa
:04022c00d8020000f4
:020000040000fa
:04023000d8020000f0
:020000040000fa
:04023400d8020000ec
:020000040000fa
:04023800d8020000e8
:020000040000fa
:04023c00d8020000e4
:020000040000fa
:04024000d8020000e0
:020000040000fa
:04024400d8020000dc
:020000040000fa
:04024800d8020000d8
:020000040000fa
:04024c00d8020000d4
:020000040000fa
:04025000d8020000d0
:020000040000fa
:04025400d8020000cc
:020000040000fa
:04025800d8020000c8
:020000040000fa
:04025c00d8020000c4
:020000040000fa
:04026000d8020000c0
:020000040000fa
:04026400d8020000bc
:020000040000fa
:04026800d8020000b8
:020000040000fa
:04026c00d8020000b4
:020000040000fa
:04027000d8020000b0
:020000040000fa
:04027400d8020000ac
:020000040000fa
:04027800d8020000a8
:020000040000fa
:04027c00d8020000a4
:020000040000fa
:04028000d8020000a0
:020000040000fa
:04028400d80200009c
:020000040000fa
:04028800d802000098
:020000040000fa
:04028c00d802000094
:020000040000fa
:04029000d802000090
:020000040000fa
:04029400d80200008c
:020000040000fa
:04029800d802000088
:020000040000fa
:04029c00d802000084
:020000040000fa
:0402a000d802000080
:020000040000fa
:0402a400d80200007c
:020000040000fa
:0402a800d802000078
:020000040000fa
:0402ac00d802000074
:020000040000fa
:0402b000d802000070
:020000040000fa
:0402b400d80200006c
:020000040000fa
:0402b800d802000068
:020000040000fa
:0402bc00d802000064
:020000040000fa
:0402c000d802000060
:020000040000fa
:0402c400d80200005c
:020000040000fa
:0402c800d802000058
:020000040000fa
:0402cc00d802000054
:020000040000fa
:0402d000d802000050
:020000040000fa
:0402d400d80200004c
:020000040000fa
:0402d800d802000048
:020000040000fa
:0402dc00d802000044
:020000040000fa
:0402e000d802000040
:020000040000fa
:0402e400d80200003c
:020000040000fa
:0402e800d802000038
:020000040000fa
:0402ec00d802000034
:020000040000fa
:0402f000d802000030
:020000040000fa
:0402f400d80200002c
:020000040000fa
:0402f800d802000028
:020000040000fa
:0402fc00d802000024
:020000040000fa
:04030000d80200001f
:020000040000fa
:04030400d80200001b
:020000040000fa
:04030800d802000017
:020000040000fa
:04030c00d802000013
:020000040000fa
:04031000d80200000f
:020000040000fa
:04031400d80200000b
:020000040000fa
:04031800d802000007
:020000040000fa
:04031c00d802000003
:020000040000fa
:04032000d8020000ff
:020000040000fa
:04032400d8020000fb
:020000040000fa
:04032800d8020000f7
:020000040000fa
:04032c00d8020000f3
:020000040000fa
:04033000d8020000ef
:020000040000fa
:04033400d8020000eb
:020000040000fa
:100400004f8020000e7f22000e01880000000000b7
:10041000000020000000e000020032000001200087
:100420002002880014000700630007000000e000bd
:1004300003003a00e09e2000010020000200370087
:100440000000200001002000810f70000100320038
:1004500014000700000020000000e000020032004d
:1004600000000200000000003e0802000000000042
:100470000040da000000fe004440a900c006200051
:100480000000e0000300320000002000a00188000e
:100490004440a800000006008a1f78008b1f7800e7
:1004a0000000060091018800800478000000eb0045
:1004b0001a003700e284440032a0b4009905ba0063
:1004c000e284440032a0b4009906ba00e2844400f9
:1004d00032a0b4000006eb00476fde00fd07b2005b
:1004e000636ce10003003a00ebff07000000eb0043
:1004f0000a003700606ce10004003a00005deb0088
:100500008b05e900fdff3e00040037006168e10053
:10051000010032000086eb000b00070019c7ba008b
:100520001905ba000e04e00003003a000a00e000da
:10053000e0ff3a0000000600fe07b2009e018800be
:100540008a047800f5ff3700395dba008b05e900b1
:100550000c003200295dba008b05e900080032006a
:100560000c00e00003003a00e284440032a0b40032
:10057000f5ff370019ddba008b05e900faff3a00f4
:100580008904e800e184440032a0b40000000600c1
:100590000a080400000000006e06040000000000cd
:1005a0007007040000000000de07040000000000e7
:0c05b0000040da000000fe000000050022
:020000040000fa
:1005bc0020200000204d0000494b0000524f00004d
:1005cc00464100004c410000002000004d4f00004f
:1005dc0043200000435a0000415300002045000016
:1005ec00584900005400000057790000626900006f
:1005fc00657200007a2000006d6f0000630000003f
:10060c004d6f0000633a000020000000557300009d
:10061c007461000077200000637a000061730000b1
:10062c00004300007a610000732000007573000025
:10063c0074610000776900006f6e0000793a000069
:10064c00200000006d730000004300007a61000080
:10065c0073200000646f0000646100006e7900007c
:10066c003a200000005000006f7a00006f73000009
:10067c00746100006c790000206300007a61000056
:08068c00733a00002000000099
:020000040000fa
:100694000000fa00f03f20001030880030382800b5
:1006a400003088001000200060308800008823009b
:1006b4001100200018010700008823001100200009
:1006c400150107000426ef003003200040308800a5
:1006d40050032000010020000f0107000426ef0052
:1006e4002003200040308800500320000100200037
:1006f400090107000426ef00800320004030880031
:100704005003200001002000030107000426ef002d
:10071400c000200040308800500320000100200069
:10072400fd0007000426ef00600020004030880030
:100734005003200001002000f70007006d000700af
:1007440010c0b3000080fa00000006000400fa00a4
:10075400000f7800110798000a0037001e00780087
:10076400104078000000fb000000e000110032009f
:100774001e007800104078001e0fe80010000700eb
:10078400000000001e00900000f0a7000000ea0036
:100794000000ea004f00de00004078009e00900058
:1007a4008100e900110798000004e000ebff3a0023
:1007b40001003700000000000080fa00000006007d
:1007c4000200fa00004f78001e00fb00ea0f500000
:1007d4000e003200ea0f500003003c00e80f500006
:1007e400150032001b003700ec0f500017003200d8
:1007f400ed0f500017003a0002c8bf00ea4f500046
:10080400360032004c0007003500370002c8bf0034
:10081400ed4f5000010032004700070000c8bf0040
:100824000004e00002003a00b00007002c0037008a
:10083400a30007002a0037005300070000c2b300da
:10084400dfff0700500007002500370029000700dc
:100854002300370001c8bf00f04f500014003a00d5
:100864000168ef0000c8bf000004e00009003a007e
:100874000426ef00000c20004030880050032000c4
:1008840001002000a400070010c0b30000e8b70076
:10089400070037000426ef000008200040308800dd
:1008a40050032000010020009b0007000068ef00b7
:1008b40010002000203088001e00fb00403088001b
:1008c40050032000010020009300070001c8bf006e
:1008d4000040e80001e8b700010037000000000014
:1008e4001e41780021802000824878000080fa00b0
:1008f400000006000000fa000426ef0010002000ab
:1009040040308800a08820000100200082000700f9
:100914000426ef002000200040308800a08820003a
:10092400010020007c0007000068ef000168ef0070
:100934000080fa00000006000000fa0000c8bf00b2
:100944000004e00007003a000426ef00000820003d
:100954004030880050032000010020006e00070092
:10096400060037000426ef00000c20004030880009
:100974005003200001002000670007000168ef0019
:100984000080fa00000006000200fa0001c8bf005f
:100994000004e0001c003a0000c8bf000004e000ae
:1009a40009003a000426ef00000c200040308800c3
:1009b40050032000010020005700070010c0b300be
:1009c40000e8b700070037000426ef000008200005
:1009d4004030880050032000010020004e00070032
:1009e4000068ef000040eb00004f78000200370081
:1009f400100007001e4fe8001e407800ee4f500024
:100a0400fbff36000900370001c8bf000040e900c1
:100a140001e8b7000426ef00000120004030880000
:100a240050032000010020003b0007000080fa0072
:100a3400000006000000fa000426ef004001200038
:100a440040308800500320000100200032000700dd
:100a540001c8bf000040e80001e8b70001c8bf00ba
:100a6400f04f500014003a000168ef0000c8bf00c6
:100a74000004e00009003a000426ef00000c200006
:100a840040308800500320000100200022000700ad
:100a940010c0b30000e8b700070037000426ef00d9
:100aa400000820004030880050032000010020008e
:100ab400190007000068ef000080fa00000006003b
:100ac4000200fa000040eb00004f780002003700fb
:100ad400adff07001e4fe8001e407800ef4f5000a6
:100ae400fbff36000080fa00000006000200fa0056
:100af4000040eb00004f780002003700cdff0700f4
:100b04001e4fe8001e407800ef4f5000fbff3600f8
:100b14000080fa00000006000400fa00008fbe0006
:100b240005003700000000000081eb008081eb002d
:100b34001e0f41005e9749001e00be00e00f5000ea
:100b4400e08f5800f7ff3a000080fa00000006002a
:100b54000200fa00004f78001e4078000004e00014
:100b6400070032000426ef00f00020004030880027
:100b74005003200001002000e7ff070006003700b3
:100b84000426ef00c00020004030880050032000fd
:100b940001002000e0ff07000080fa0000000600ca
:100ba4000000fa000000eb008c0107005000200058
:100bb4007a010700b6fe070010002000df010700dd
:100bc40040002000dd01070020002000db010700b9
:100bd40030002000d90107000080fa000000060060
:100be4000000fa0043ff0700c1002000e02d2800a8
:100bf400d6fe0700a0c0b300f1fe0700e10020000c
:100c0400b02e2800d1fe07000080fa000000060084
:100c14000200fa0037ff0700b1002000a02f2800cf
:100c2400cafe0700a0c0b300e5fe070000242400ac
:100c3400f1002000da010700010037000000000085
:100c440030002000870107000004e00004003200a7
:100c5400a0802000000001000080fa0000000600cf
:100c6400400020007f0107000004e000f3ff320091
:100c7400500020001f010700000f78001dff07002f
:100c8400b1002000a02f2800b0fe0700a0c0b300d0
:100c9400cbfe07005100200060302800abfe0700a7
:100ca400e16620001e0078000100010050c2b3007c
:100cb400c3fe070000a8210061002000b80107005e
:100cc4000000000040002000660107000004e0006e
:100cd400fcff3a00daff37000200fa00000f780048
:100ce400703e20009e007800808f50000e00360079
:100cf4001e007800c300de00500c22000008b8007b
:100d04004409de00d0cc2c000010b8004308de00fb
:100d14006a00b9000000780000005100004078002b
:100d24000043b000a6fe0700300620009e007800b5
:100d3400808f50000e0036001e007800c200de00d6
:100d4400b04721000008b8000101d100d0cc2c002c
:100d54000010b8004308de006a00b9000000780003
:100d640000005100004078000043b00094fe0700ea
:100d74001e007800e90f50000d0036009e00780038
:100d8400d0cc2c000008b8004309de00d0cc2c00e5
:100d94000010b8004308de006a00b90000007800c3
:100da40000005100004078000043b00084fe0700ba
:100db4001e017800d0cc2c000010b8004308de00df
:100dc4006a00b9000000780000005100004078007b
:100dd4000043b0007afe07000080fa00000006001d
:100de4000400fa000040eb0020479800c1fe070011
:100df400a1002000c030280054fe0700a0c0b300aa
:100e04006ffe070000242400f100200064010700a5
:100e1400010037000000000030002000110107002d
:100e24000004e00003003200a08020000000010064
:100e340028003700400020000a0107000004e000f9
:100e4400f4ff320000a821006100200054010700d3
:100e54002e4090000040e800204798002e4090006b
:100e6400e14f50000d003a0050002000a10007009f
:100e7400000f78009ffe0700f10020007031280069
:100e840032fe07001e00780093ff070021002000b7
:100e9400803228002dfe0700090037002e40900004
:100ea400e24f500005003a00017720001e00780050
:100eb40001000100000000000600370000000000ef
:100ec40040002000e70007000004e000fcff3a00b7
:100ed400d1ff37000080fa00000006000600fa0087
:100ee40020079800ae009000010f78002900370019
:100ef40030002000db0007000004e0000f00320097
:100f0400500020007b000700100798001e0090008e
:100f14001e0f400077fe0700d1002000b0322800e9
:100f24000afe07001e0078006bff07002100200066
:100f34008032280005fe070016003700200020003c
:100f4400c80007000004e00005003200e07d200036
:100f540000000100a0802000000001001400370000
:100f640064fe07000101200090332800f7fd07000c
:100f74001e00780058ff070021002000803228005e
:100f8400f2fd070000a82100610020000401070011
:100f94001e0fe9001e0078000000e000d4ff3a00b4
:100fa400e07d200000000100a0802000000001007e
:100fb4000080fa00000006000200fa000080eb0046
:100fc40060198800c022ef000000eb00000f7800d9
:100fd4000a0037000080eb00201688000048280033
:100fe400e1012000ee000700c422ef0000482800c1
:100ff400e1012000ea0007001e0fe8001e0078004f
:10100400e90f5000f3ff34000080fa0000000600ee
:101014000000fa00f2fe07000100370000000000a3
:1010240000cc250051012000dd0007002000200035
:101034008c0007000004e00002003200f4fe070008
:10104400f7ff370030002000860007000004e000ae
:101054000200320062ff0700f1ff37004000200069
:10106400800007000004e000ecff320000000000f4
:101074000080fa00000006000000fa00c8fe070025
:10108400e3ff0700ffff37000400fa001007980091
:101094001e009000e40f500004003200e50f5000e1
:1010a4000400320000c0eb00100037000000000014
:1010b40001003700000000001e0090000d00070032
:1010c400d1cc2c000100b8004308de00004f7800aa
:1010d40040c6b3009e40780080cf50000200360026
:1010e40040c6b300004f78001e4078000080fa002c
:1010f400000006000400fa00100798001e0090008b
:10110400e40f500004003200e50f500004003200e8
:101114000080eb001f0037000000000001003700d2
:10112400000000009e009000411988002023a800c0
:101134000000eb00000f7800020037000000000000
:101144001e0fe800703e20009e007800808f500043
:10115400faff36002023a9000000eb00000f7800fe
:1011640002003700000000001e0fe800703e20005f
:101174009e007800808f5000faff360000000000c7
:1011840000198000610060000000e000fcff3200f4
:10119400001880000080fa00000006000200fa0037
:1011a400000f78001e007800e40f500005003200a4
:1011b400e50f500006003a002ca3a90010c0b300ac
:1011c400040037002c83a90010c0b30001003700cd
:1011d4000040eb000080fa00000006000200fa0064
:1011e400000f78001e0078000000e0001a003a00aa
:1011f40011198000f0ff21000080600010198800a0
:1012040000c0eb0024e3b70001198000f0f12f00c7
:10121400008060000019880021198000f00f2e0062
:101224000080600000c0a00020198800011980001f
:10123400f0cf2f0000806000001988001119800091
:1012440030fc2f00008060001019880021e3a80002
:1012540010c0b300010037000040eb000080fa002a
:10126400000006000200fa00000f78001e0078005b
:10127400e20f500013003200e20f500003003e0062
:10128400e10f50000600320029003700e30f500040
:1012940015003200e40f50001c0032002400370017
:1012a400a1168000000420000080600000f0a70068
:1012b4000000ea000000e9004f00de000040780072
:1012c4001c003700a1168000000820000080600088
:1012d40000f0a7000000ea000000e9004f00de0073
:1012e4000040780013003700111680000008200029
:1012f4000080600000f0a7000000ea000000e900a0
:101304004f00de00004078000a003700a11680007c
:10131400000022000080600000f0a7000000ea0046
:101324000000e9004f00de000040780001003700b3
:101334000040eb000080fa00000006000200fa0002
:10134400000f78001e007800e20f50000c003200fd
:10135400e20f500003003e00e10f5000060032008f
:101364000d003700e30f500007003200e40f500077
:101374000700320008003700d2c2a8000600370078
:10138400d2e2a80004003700c0e2a800020037003f
:10139400d3a2a800000000000080fa0000000600ac
:020000040000fa
:1013a400f03fb1000180b10006003500ee030900f2
:1013b40000000000403fb1000180b100fbff3d0090
:1013c4001000b000203fb00002003500008009008a
:0813d40000000000000006000b
:020000040000fa
:1013dc0000080000040000000000000000000000f5
:020000040000fa
:020000040002f8
:04aff8009dfa0000be
:020000040000fa
:020000040002f8
:04affc007f3f000093
:00000001FF
