:020000040000fa
:080000000002040000000000f2
:020000040000fa
:04000800cc02000026
:020000040000fa
:04000c00cc02000022
:020000040000fa
:04001000cc0200001e
:020000040000fa
:04001400cc0200001a
:020000040000fa
:04001800cc02000016
:020000040000fa
:04001c00cc02000012
:020000040000fa
:04002000cc0200000e
:020000040000fa
:04002400cc0200000a
:020000040000fa
:04002800cc02000006
:020000040000fa
:04002c00cc02000002
:020000040000fa
:04003000cc020000fe
:020000040000fa
:04003400cc020000fa
:020000040000fa
:04003800cc020000f6
:020000040000fa
:04003c00cc020000f2
:020000040000fa
:04004000cc020000ee
:020000040000fa
:04004400cc020000ea
:020000040000fa
:04004800cc020000e6
:020000040000fa
:04004c00cc020000e2
:020000040000fa
:04005000cc020000de
:020000040000fa
:04005400cc020000da
:020000040000fa
:04005800cc020000d6
:020000040000fa
:04005c00cc020000d2
:020000040000fa
:04006000cc020000ce
:020000040000fa
:04006400cc020000ca
:020000040000fa
:04006800cc020000c6
:020000040000fa
:04006c00cc020000c2
:020000040000fa
:04007000cc020000be
:020000040000fa
:04007400cc020000ba
:020000040000fa
:04007800cc020000b6
:020000040000fa
:04007c00cc020000b2
:020000040000fa
:04008000cc020000ae
:020000040000fa
:04008400cc020000aa
:020000040000fa
:04008800cc020000a6
:020000040000fa
:04008c00cc020000a2
:020000040000fa
:04009000cc0200009e
:020000040000fa
:04009400cc0200009a
:020000040000fa
:04009800cc02000096
:020000040000fa
:04009c00cc02000092
:020000040000fa
:0400a000cc0200008e
:020000040000fa
:0400a400cc0200008a
:020000040000fa
:0400a800cc02000086
:020000040000fa
:0400ac00cc02000082
:020000040000fa
:0400b000cc0200007e
:020000040000fa
:0400b400cc0200007a
:020000040000fa
:0400b800cc02000076
:020000040000fa
:0400bc00cc02000072
:020000040000fa
:0400c000cc0200006e
:020000040000fa
:0400c400cc0200006a
:020000040000fa
:0400c800cc02000066
:020000040000fa
:0400cc00cc02000062
:020000040000fa
:0400d000cc0200005e
:020000040000fa
:0400d400cc0200005a
:020000040000fa
:0400d800cc02000056
:020000040000fa
:0400dc00cc02000052
:020000040000fa
:0400e000cc0200004e
:020000040000fa
:0400e400cc0200004a
:020000040000fa
:0400e800cc02000046
:020000040000fa
:0400ec00cc02000042
:020000040000fa
:0400f000cc0200003e
:020000040000fa
:0400f400cc0200003a
:020000040000fa
:0400f800cc02000036
:020000040000fa
:0400fc00cc02000032
:020000040000fa
:04010000cc0200002d
:020000040000fa
:04010400cc02000029
:020000040000fa
:04010800cc02000025
:020000040000fa
:04010c00cc02000021
:020000040000fa
:04011000cc0200001d
:020000040000fa
:04011400cc02000019
:020000040000fa
:04011800cc02000015
:020000040000fa
:04011c00cc02000011
:020000040000fa
:04012000cc0200000d
:020000040000fa
:04012400cc02000009
:020000040000fa
:04012800cc02000005
:020000040000fa
:04012c00cc02000001
:020000040000fa
:04013000cc020000fd
:020000040000fa
:04013400cc020000f9
:020000040000fa
:04020800cc02000024
:020000040000fa
:04020c00cc02000020
:020000040000fa
:04021000cc0200001c
:020000040000fa
:04021400cc02000018
:020000040000fa
:04021800cc02000014
:020000040000fa
:04021c00cc02000010
:020000040000fa
:04022000cc0200000c
:020000040000fa
:04022400cc02000008
:020000040000fa
:04022800cc02000004
:020000040000fa
:04022c00cc02000000
:020000040000fa
:04023000cc020000fc
:020000040000fa
:04023400cc020000f8
:020000040000fa
:04023800cc020000f4
:020000040000fa
:04023c00cc020000f0
:020000040000fa
:04024000cc020000ec
:020000040000fa
:04024400cc020000e8
:020000040000fa
:04024800cc020000e4
:020000040000fa
:04024c00cc020000e0
:020000040000fa
:04025000cc020000dc
:020000040000fa
:04025400cc020000d8
:020000040000fa
:04025800cc020000d4
:020000040000fa
:04025c00cc020000d0
:020000040000fa
:04026000cc020000cc
:020000040000fa
:04026400cc020000c8
:020000040000fa
:04026800cc020000c4
:020000040000fa
:04026c00cc020000c0
:020000040000fa
:04027000cc020000bc
:020000040000fa
:04027400cc020000b8
:020000040000fa
:04027800cc020000b4
:020000040000fa
:04027c00cc020000b0
:020000040000fa
:04028000cc020000ac
:020000040000fa
:04028400cc020000a8
:020000040000fa
:04028800cc020000a4
:020000040000fa
:04028c00cc020000a0
:020000040000fa
:04029000cc0200009c
:020000040000fa
:04029400cc02000098
:020000040000fa
:04029800cc02000094
:020000040000fa
:04029c00cc02000090
:020000040000fa
:0402a000cc0200008c
:020000040000fa
:0402a400cc02000088
:020000040000fa
:0402a800cc02000084
:020000040000fa
:0402ac00cc02000080
:020000040000fa
:0402b000cc0200007c
:020000040000fa
:0402b400cc02000078
:020000040000fa
:0402b800cc02000074
:020000040000fa
:0402bc00cc02000070
:020000040000fa
:0402c000cc0200006c
:020000040000fa
:0402c400cc02000068
:020000040000fa
:0402c800cc02000064
:020000040000fa
:0402cc00cc02000060
:020000040000fa
:0402d000cc0200005c
:020000040000fa
:0402d400cc02000058
:020000040000fa
:0402d800cc02000054
:020000040000fa
:0402dc00cc02000050
:020000040000fa
:0402e000cc0200004c
:020000040000fa
:0402e400cc02000048
:020000040000fa
:0402e800cc02000044
:020000040000fa
:0402ec00cc02000040
:020000040000fa
:0402f000cc0200003c
:020000040000fa
:0402f400cc02000038
:020000040000fa
:0402f800cc02000034
:020000040000fa
:0402fc00cc02000030
:020000040000fa
:04030000cc0200002b
:020000040000fa
:04030400cc02000027
:020000040000fa
:04030800cc02000023
:020000040000fa
:04030c00cc0200001f
:020000040000fa
:04031000cc0200001b
:020000040000fa
:04031400cc02000017
:020000040000fa
:04031800cc02000013
:020000040000fa
:04031c00cc0200000f
:020000040000fa
:04032000cc0200000b
:020000040000fa
:04032400cc02000007
:020000040000fa
:04032800cc02000003
:020000040000fa
:04032c00cc020000ff
:020000040000fa
:04033000cc020000fb
:020000040000fa
:04033400cc020000f7
:020000040000fa
:10040000ef8020000e7f22000e0188000000000017
:10041000000020000000e000020032000001200087
:1004200020028800140007005d0007000000e000c3
:1004300003003a00808920000100200002003700fc
:100440000000200001002000810f70000100320038
:1004500014000700000020000000e000020032004d
:100460000000020000000000d407020000000000ad
:100470000040da000000fe004440a9000007200010
:100480000000e0000300320000002000a00188000e
:100490004440a800000006008a1f78008b1f7800e7
:1004a0000000060091018800800478000000eb0045
:1004b0001a003700e284440032a0b4009905ba0063
:1004c000e284440032a0b4009906ba00e2844400f9
:1004d00032a0b4000006eb00476fde00fd07b2005b
:1004e000636ce10003003a00ebff07000000eb0043
:1004f0000a003700606ce10004003a00005deb0088
:100500008b05e900fdff3e00040037006168e10053
:10051000010032000086eb000b00070019c7ba008b
:100520001905ba000e04e00003003a000a00e000da
:10053000e0ff3a0000000600fe07b2009e018800be
:100540008a047800f5ff3700395dba008b05e900b1
:100550000c003200295dba008b05e900080032006a
:100560000c00e00003003a00e284440032a0b40032
:10057000f5ff370019ddba008b05e900faff3a00f4
:100580008904e800e184440032a0b40000000600c1
:1005900058070400000000000040da000000fe00e0
:0405a0000000050052
:020000040000fa
:1005a400506c000061790000657200002031000089
:1005b4003a200000005000006c61000079650000e2
:1005c40072200000323a0000200000004d4100007b
:1005d400543a000020500000310000004d4100005a
:1005e400543a00002050000032000000476100002f
:1005f4006d650000204f000076650000723a00002f
:10060400204400007261000077000000436800008d
:100614006573000073200000436c00006f630000ea
:100624006b0000005072000065730000205300004e
:1006340033200000746f0000207300007461000018
:100644007274000000470000616d00006520000026
:100654004f760000657200003a200000503100001f
:1006640000470000616d0000652000004f76000027
:10067400657200003a2000005032000000000000c3
:020000040000fa
:100684000000fa00f03f20001030880030382800c5
:1006940000308800100020006030880000882300ab
:1006a4001100200018010700008823001100200019
:1006b400150107000426ef003003200040308800b5
:1006c40050032000010020000f0107000426ef0062
:1006d4002003200040308800500320000100200047
:1006e400090107000426ef00800320004030880041
:1006f4005003200001002000030107000426ef003e
:10070400c000200040308800500320000100200079
:10071400fd0007000426ef00600020004030880040
:100724005003200001002000f70007006d000700bf
:1007340010c0b3000080fa00000006000400fa00b4
:10074400000f7800110798000a0037001e00780097
:10075400104078000000fb000000e00011003200af
:100764001e007800104078001e0fe80010000700fb
:10077400000000001e00900000f0a7000000ea0046
:100784000000ea004f00de00004078009e00900068
:100794008100e900110798000004e000ebff3a0033
:1007a40001003700000000000080fa00000006008d
:1007b4000200fa00004f78001e00fb00ea0f500010
:1007c4000e003200ea0f500003003c00e80f500016
:1007d400150032001b003700ec0f500017003200e8
:1007e400ed0f500017003a000ac8bf00ea4f50004e
:1007f400360032004c000700350037000ac8bf003d
:10080400ed4f5000010032004700070008c8bf0048
:100814000004e00002003a00b00007002c0037009a
:10082400a30007002a0037005300070000c2b300ea
:10083400dfff0700500007002500370029000700ec
:100844002300370009c8bf00f04f500014003a00dd
:100854000968ef0008c8bf000004e00009003a007e
:100864000426ef00000c20004030880050032000d4
:1008740001002000a400070010c0b30008e8b7007e
:10088400070037000426ef000008200040308800ed
:1008940050032000010020009b0007000868ef00bf
:1008a40010002000203088001e00fb00403088002b
:1008b40050032000010020009300070009c8bf0076
:1008c4000040e80009e8b70001003700000000001c
:1008d4001e417800a1802000824878000080fa0040
:1008e400000006000000fa000426ef0010002000bb
:1008f40040308800a088200001002000820007000a
:100904000426ef002000200040308800a08820004a
:10091400010020007c0007000868ef000968ef0070
:100924000080fa00000006000000fa0008c8bf00ba
:100934000004e00007003a000426ef00000820004d
:100944004030880050032000010020006e000700a2
:10095400060037000426ef00000c20004030880019
:100964005003200001002000670007000968ef0021
:100974000080fa00000006000200fa0009c8bf0067
:100984000004e0001c003a0008c8bf000004e000b6
:1009940009003a000426ef00000c200040308800d3
:1009a40050032000010020005700070010c0b300ce
:1009b40008e8b700070037000426ef00000820000d
:1009c4004030880050032000010020004e00070042
:1009d4000868ef000040eb00004f78000200370089
:1009e400100007001e4fe8001e407800ee4f500034
:1009f400fbff36000900370009c8bf000040e900ca
:100a040009e8b7000426ef00000120004030880008
:100a140050032000010020003b0007000080fa0082
:100a2400000006000000fa000426ef004001200048
:100a340040308800500320000100200032000700ed
:100a440009c8bf000040e80009e8b70009c8bf00b2
:100a5400f04f500014003a000968ef0008c8bf00c6
:100a64000004e00009003a000426ef00000c200016
:100a740040308800500320000100200022000700bd
:100a840010c0b30008e8b700070037000426ef00e1
:100a9400000820004030880050032000010020009e
:100aa400190007000868ef000080fa000000060043
:100ab4000200fa000040eb00004f7800020037000b
:100ac400adff07001e4fe8001e407800ef4f5000b6
:100ad400fbff36000080fa00000006000200fa0066
:100ae4000040eb00004f780002003700cdff070004
:100af4001e4fe8001e407800ef4f5000fbff360009
:100b04000080fa00000006000400fa00008fbe0016
:100b140005003700000000000081eb008081eb003d
:100b24001e0f41005e9749001e00be00e00f5000fa
:100b3400e08f5800f7ff3a000080fa00000006003a
:100b44000200fa00004f78001e4078000004e00024
:100b5400070032000426ef00f00020004030880037
:100b64005003200001002000e7ff070006003700c3
:100b74000426ef00c000200040308800500320000d
:100b840001002000e0ff07000080fa0000000600da
:100b94000000fa00bafe0700100020003c01070024
:100ba400400020003a01070030002000380107000f
:100bb40020002000360107000080fa000000060033
:100bc4000400fa001007980010c0b300004f78002a
:100bd4009e009000f0702200808f500010003600bc
:100be4001e009000c400de00703420000008b8002d
:100bf4004309de00d0cc2c000010b8004308de000e
:100c04006a00b9000000780000005100004078003c
:100c14000043b000e6fe07000040eb00004f780000
:100c24009e009000703e2000808f500003003e0024
:100c34001e4078000004e00010003a001e009000fe
:100c4400c300de00500c22000008b8004409de0096
:100c5400d0cc2c000010b8004308de006a00b900b4
:100c64000000780000005100004078000043b0000c
:100c7400cffe07000040eb00004f78009e0090007c
:100c840030062000808f500003003e001e40780094
:100c94000004e00010003a001e009000c200de00d4
:100ca400b04721000008b8000101d100d0cc2c00cd
:100cb4000010b8004308de006a00b90000007800a4
:100cc40000005100004078000043b000b8fe070067
:100cd4000040eb00004f78001e009000e90f500028
:100ce40003003e001e4078000004e0000d003a00be
:100cf4009e009000d0cc2c000008b8004309de0010
:100d0400d0cc2c000010b8004308de006a00b90003
:100d14000000780000005100004078000043b0005b
:100d2400a3fe07001e019000d0cc2c000010b800d8
:100d34004308de006a00b90000007800000051009a
:100d4400004078000043b00099fe07000080fa00dc
:100d5400000006000000fa00e2fe0700a1002000e7
:100d6400202d280075fe07000040800094ff070036
:100d7400a0c0b3008efe0700a1002000d02d2800e3
:100d84006efe0700104080008dff07000080fa000f
:100d9400000006000200fa0021408000010f7800e4
:100da40030408000204088009e0078003140880058
:100db400e8ff07000080fa00000006000200fa00c5
:100dc400000f78000c68ef00c6fe07000101200048
:100dd4001e00780059fe070000b02100710b2000ae
:100de400c400070080752000000001000080fa00a4
:100df400000006000000fa00100020006e0007004a
:100e04000004e00006003200214080002080200021
:100e1400808f500002003a00deff0700090037000f
:100e240040002000640007000004e00005003200d8
:100e34002140800000802000808f500001003a0093
:100e4400d4ff0700300020005b0007000004e0002e
:100e54000b0032002140800000802000808f500071
:100e640002003a00802e280001003700002f2800dd
:100e7400d2ff070000b02100710b20009d00070085
:100e8400200020004c0007000004e00005003200b0
:100e9400802f2800c9ff070000b02100710b20003b
:100ea400940007000080fa00000006000000fa0029
:100eb4008cfe0700b1002000803028001ffe0700d0
:100ec400a0c0b3003afe0700110120004031280001
:100ed4001afe070000000000100020003600070082
:100ee4000004a2000004e000fbff3a0010c0b300bd
:100ef4000ce8b7008000200000408800800020003b
:100f040010408800008020002040880020802000bd
:100f1400304088008fff07000080fa0000000600c0
:100f24000000fa000080200020408800208020007b
:100f34003040880087ff070015003700adff070029
:100f440000902000d10320006a00070020408000a8
:100f5400900078008100e900010878001000780012
:100f64000000e00009003c002140800000802000d7
:100f7400808f500002003a005032280001003700f0
:100f8400303328008dff07000400370071ff07008d
:100f94000cc8bf000004e000e8ff3a000080fa003b
:100fa400000006000000fa00f9fe0700bfff07007a
:100fb400dbff0700feff37000200fa00000f780095
:100fc4001e007800e20f500013003200e20f5000c0
:100fd40003003e00e10f50000600320029003700f4
:100fe400e30f500015003200e40f50001c003200e3
:100ff40024003700a1168000000420000080600057
:1010040000f0a7000000ea000000e9004f00de0045
:10101400004078001c003700a11680000008200062
:101024000080600000f0a7000000ea000000e90072
:101034004f00de00004078001300370011168000d6
:10104400000820000080600000f0a7000000ea0013
:101054000000e9004f00de00004078000a0037007d
:10106400a1168000000022000080600000f0a700ac
:101074000000ea000000e9004f00de0000407800b4
:10108400010037000040eb000080fa000000060079
:101094000200fa00000f78001e007800e20f5000f2
:1010a4000c003200e20f500003003e00e10f50003c
:1010b400060032000d003700e30f50000700320035
:1010c400e40f50000700320008003700d2c2a80025
:1010d40006003700d2e2a80004003700c0e2a800ee
:1010e40002003700d3a2a800000000000080fa002c
:0410f40000000600f2
:020000040000fa
:1010f800f03fb1000180b10006003500ee030900a1
:1011080000000000403fb1000180b100fbff3d003e
:101118001000b000203fb000020035000080090038
:081128000000000000000600b9
:020000040000fa
:10113000000800000800000002000000080008008d
:1011400000000800020800000c0800000200000077
:10115000000000000808000004000000000000007b
:04116000000000008b
:020000040000fa
:020000040002f8
:04aff8009dfa0000be
:020000040000fa
:020000040002f8
:04affc007f3f000093
:00000001FF
