:020000040000fa
:080000000002040000000000f2
:020000040000fa
:04000800c80200002a
:020000040000fa
:04000c00c802000026
:020000040000fa
:04001000c802000022
:020000040000fa
:04001400c80200001e
:020000040000fa
:04001800c80200001a
:020000040000fa
:04001c00c802000016
:020000040000fa
:04002000c802000012
:020000040000fa
:04002400c80200000e
:020000040000fa
:04002800c80200000a
:020000040000fa
:04002c00c802000006
:020000040000fa
:04003000c802000002
:020000040000fa
:04003400c8020000fe
:020000040000fa
:04003800c8020000fa
:020000040000fa
:04003c00c8020000f6
:020000040000fa
:04004000c8020000f2
:020000040000fa
:04004400c8020000ee
:020000040000fa
:04004800c8020000ea
:020000040000fa
:04004c00c8020000e6
:020000040000fa
:04005000c8020000e2
:020000040000fa
:04005400c8020000de
:020000040000fa
:04005800c8020000da
:020000040000fa
:04005c00c8020000d6
:020000040000fa
:04006000c8020000d2
:020000040000fa
:04006400c8020000ce
:020000040000fa
:04006800c8020000ca
:020000040000fa
:04006c00c8020000c6
:020000040000fa
:04007000c8020000c2
:020000040000fa
:04007400c8020000be
:020000040000fa
:04007800c8020000ba
:020000040000fa
:04007c00c8020000b6
:020000040000fa
:04008000c8020000b2
:020000040000fa
:04008400c8020000ae
:020000040000fa
:04008800c8020000aa
:020000040000fa
:04008c00c8020000a6
:020000040000fa
:04009000c8020000a2
:020000040000fa
:04009400c80200009e
:020000040000fa
:04009800c80200009a
:020000040000fa
:04009c00c802000096
:020000040000fa
:0400a000c802000092
:020000040000fa
:0400a400c80200008e
:020000040000fa
:0400a800c80200008a
:020000040000fa
:0400ac00c802000086
:020000040000fa
:0400b000c802000082
:020000040000fa
:0400b400c80200007e
:020000040000fa
:0400b800c80200007a
:020000040000fa
:0400bc00c802000076
:020000040000fa
:0400c000c802000072
:020000040000fa
:0400c400c80200006e
:020000040000fa
:0400c800c80200006a
:020000040000fa
:0400cc00c802000066
:020000040000fa
:0400d000c802000062
:020000040000fa
:0400d400c80200005e
:020000040000fa
:0400d800c80200005a
:020000040000fa
:0400dc00c802000056
:020000040000fa
:0400e000c802000052
:020000040000fa
:0400e400c80200004e
:020000040000fa
:0400e800c80200004a
:020000040000fa
:0400ec00c802000046
:020000040000fa
:0400f000c802000042
:020000040000fa
:0400f400c80200003e
:020000040000fa
:0400f800c80200003a
:020000040000fa
:0400fc00c802000036
:020000040000fa
:04010000c802000031
:020000040000fa
:04010400c80200002d
:020000040000fa
:04010800c802000029
:020000040000fa
:04010c00c802000025
:020000040000fa
:04011000c802000021
:020000040000fa
:04011400c80200001d
:020000040000fa
:04011800c802000019
:020000040000fa
:04011c00c802000015
:020000040000fa
:04012000c802000011
:020000040000fa
:04012400c80200000d
:020000040000fa
:04012800c802000009
:020000040000fa
:04012c00c802000005
:020000040000fa
:04013000c802000001
:020000040000fa
:04013400c8020000fd
:020000040000fa
:04020800c802000028
:020000040000fa
:04020c00c802000024
:020000040000fa
:04021000c802000020
:020000040000fa
:04021400c80200001c
:020000040000fa
:04021800c802000018
:020000040000fa
:04021c00c802000014
:020000040000fa
:04022000c802000010
:020000040000fa
:04022400c80200000c
:020000040000fa
:04022800c802000008
:020000040000fa
:04022c00c802000004
:020000040000fa
:04023000c802000000
:020000040000fa
:04023400c8020000fc
:020000040000fa
:04023800c8020000f8
:020000040000fa
:04023c00c8020000f4
:020000040000fa
:04024000c8020000f0
:020000040000fa
:04024400c8020000ec
:020000040000fa
:04024800c8020000e8
:020000040000fa
:04024c00c8020000e4
:020000040000fa
:04025000c8020000e0
:020000040000fa
:04025400c8020000dc
:020000040000fa
:04025800c8020000d8
:020000040000fa
:04025c00c8020000d4
:020000040000fa
:04026000c8020000d0
:020000040000fa
:04026400c8020000cc
:020000040000fa
:04026800c8020000c8
:020000040000fa
:04026c00c8020000c4
:020000040000fa
:04027000c8020000c0
:020000040000fa
:04027400c8020000bc
:020000040000fa
:04027800c8020000b8
:020000040000fa
:04027c00c8020000b4
:020000040000fa
:04028000c8020000b0
:020000040000fa
:04028400c8020000ac
:020000040000fa
:04028800c8020000a8
:020000040000fa
:04028c00c8020000a4
:020000040000fa
:04029000c8020000a0
:020000040000fa
:04029400c80200009c
:020000040000fa
:04029800c802000098
:020000040000fa
:04029c00c802000094
:020000040000fa
:0402a000c802000090
:020000040000fa
:0402a400c80200008c
:020000040000fa
:0402a800c802000088
:020000040000fa
:0402ac00c802000084
:020000040000fa
:0402b000c802000080
:020000040000fa
:0402b400c80200007c
:020000040000fa
:0402b800c802000078
:020000040000fa
:0402bc00c802000074
:020000040000fa
:0402c000c802000070
:020000040000fa
:0402c400c80200006c
:020000040000fa
:0402c800c802000068
:020000040000fa
:0402cc00c802000064
:020000040000fa
:0402d000c802000060
:020000040000fa
:0402d400c80200005c
:020000040000fa
:0402d800c802000058
:020000040000fa
:0402dc00c802000054
:020000040000fa
:0402e000c802000050
:020000040000fa
:0402e400c80200004c
:020000040000fa
:0402e800c802000048
:020000040000fa
:0402ec00c802000044
:020000040000fa
:0402f000c802000040
:020000040000fa
:0402f400c80200003c
:020000040000fa
:0402f800c802000038
:020000040000fa
:0402fc00c802000034
:020000040000fa
:04030000c80200002f
:020000040000fa
:04030400c80200002b
:020000040000fa
:04030800c802000027
:020000040000fa
:04030c00c802000023
:020000040000fa
:04031000c80200001f
:020000040000fa
:04031400c80200001b
:020000040000fa
:04031800c802000017
:020000040000fa
:04031c00c802000013
:020000040000fa
:04032000c80200000f
:020000040000fa
:04032400c80200000b
:020000040000fa
:04032800c802000007
:020000040000fa
:04032c00c802000003
:020000040000fa
:04033000c8020000ff
:020000040000fa
:04033400c8020000fb
:020000040000fa
:100400000f8020000e7f22000e01880000000000f7
:10041000000020000000e000020032000001200087
:1004200020028800140007005b0007000000e000c5
:1004300003003a0000002000010020000200370005
:100440000000200001002000810f70000100320038
:1004500014000700000020000000e000020032004d
:100460000000020000000000f40202000000000092
:100470000040da000000fe004440a9000000200017
:100480000000e0000300320000002000a00188000e
:100490004440a800000006008a1f78008b1f7800e7
:1004a0000000060091018800800478000000eb0045
:1004b0001a003700e284440032a0b4009905ba0063
:1004c000e284440032a0b4009906ba00e2844400f9
:1004d00032a0b4000006eb00476fde00fd07b2005b
:1004e000636ce10003003a00ebff07000000eb0043
:1004f0000a003700606ce10004003a00005deb0088
:100500008b05e900fdff3e00040037006168e10053
:10051000010032000086eb000b00070019c7ba008b
:100520001905ba000e04e00003003a000a00e000da
:10053000e0ff3a0000000600fe07b2009e018800be
:100540008a047800f5ff3700395dba008b05e900b1
:100550000c003200295dba008b05e900080032006a
:100560000c00e00003003a00e284440032a0b40032
:10057000f5ff370019ddba008b05e900faff3a00f4
:100580008904e800e184440032a0b40000000600c1
:0c0590000040da000000fe000000050042
:020000040000fa
:10059c000400fa00204798002e4090000080fb00d9
:1005ac000000d100004f7800060037002e4090006c
:1005bc001e406800204798001e80fb000000d10000
:1005cc00004f78001e4078000004e000f7ff3a006e
:1005dc002e4090000080fa00000006001400fa0083
:1005ec000080eb0060198800c022ef000040eb0097
:1005fc00205798000000eb00000f780070c0b3008b
:10060c0020479800100020002007980010002000c0
:10061c00120107000004e0000a0032001e007800fe
:10062c000000e00003003a0090002000000f78006a
:10063c00040037001e0fe90000362e006101200077
:10064c005501070040002000040107000004e000f1
:10065c000a0032001e007800e90f500003003a0037
:10066c000000eb00000f7800040037001e0fe800bc
:10067c0000362e0061012000470107001e007800a3
:10068c00e40f50007b003200e40f50000c003c00e3
:10069c00e10f50002b003200e10f500003003c0032
:1006ac000000e0000f003200ea003700e20f5000bb
:1006bc003b003200e30f500054003200e5003700dd
:1006cc00e60f5000ba003200e60f500091003500e2
:1006dc00e70f5000dd003200e80f5000dc00320064
:1006ec00dc0037000000eb003007980010003700ea
:1006fc003e0090002016880000362e00610120007c
:10070c002501070040002000d40007000004e00091
:10071c000b003a0010002000d00007000004e0009d
:10072c0007003a003e0090000000e80030079800f7
:10073c00be009000f00f2000808f5000ecff3400c2
:10074c00c5003700f00f200040079800100037005c
:10075c004e0090002016880000362e00610120000b
:10076c000d01070040002000bc0007000004e00061
:10077c000a003a0010002000b80007000004e00056
:10078c0006003a004e0090000000e9004007980077
:10079c004e0090000000e000edff3d00ae00370081
:1007ac000000eb0050079800130037005e0090002b
:1007bc000040780076ff07000080fb0020168800c0
:1007cc0000362e0061012000f300070040002000dd
:1007dc00a20007000004e0000b003a00100020000b
:1007ec009e0007000004e00007003a005e00900045
:1007fc000000e80050079800de009000f00f200089
:10080c00808f5000e9ff340093003700f00f200078
:10081c0060079800130037006e00900000407800cd
:10082c005bff07000080fb002016880000362e00be
:10083c0061012000d800070040002000870007005d
:10084c000004e0000a003a001000200083000700ba
:10085c000004e00006003a006e0090000000e90081
:10086c00600798006e0090000000e000eaff3d0079
:10087c00790037000000eb0070079800200037006b
:10088c007e019000706626000090b900c288de00e0
:10089c004f90de00008050004402dd00fe0090000e
:1008ac00706626000089b9004299de004f88de0090
:1008bc00000051006a01b90002007800008050006d
:1008cc00040070002016880000362e006101200004
:1008dc00b100070040002000600007000004e000a9
:1008ec000b003a00100020005c0007000004e00040
:1008fc0007003a007e0090000000e80070079800a6
:10090c00fe00900030062000808f5000dcff340089
:10091c005100370030062000000f980020003700ef
:10092c000e099000706626000090b900c288de00a7
:10093c004f90de00008050004402dd008e089000d5
:10094c00706626000089b9004299de004f88de00ef
:10095c00000051006a01b9000200780000805000cc
:10096c00040070002016880000362e006101200063
:10097c008900070040002000380007000004e00058
:10098c000a003a0010002000340007000004e000c8
:10099c0006003a000e0890000000e900000f9800d5
:1009ac000e0890000000e000ddff3d002a0037003b
:1009bc002e4090000080fb002016880000122a00b8
:1009cc007100200074000700400020002300070085
:1009dc000004e0001c003a00100020001f0007007b
:1009ec000004e00018003a00ae40900000ceb300c6
:1009fc0080cf500003003a000080eb0020079800e5
:100a0c00050037002e409000e74f500002003a00de
:100a1c0010002000200798002e009000e10f5000dd
:100a2c0004003a002e4090000040400020479800ff
:100a3c00dfff37002e4090000080fb000000d1004b
:100a4c0020479800daff3700030037000200370018
:100a5c000100370000000000ecfe37000200fa0035
:100a6c00000f78001e007800e20f500013003200d7
:100a7c00e20f500003003e00e10f50000600320070
:100a8c0029003700e30f500015003200e40f50002e
:100a9c001c00320024003700a11680000004200046
:100aac000080600000f0a7000000ea000000e900f0
:100abc004f00de00004078001c003700a1168000bb
:100acc00000820000080600000f0a7000000ea0091
:100adc000000e9004f00de000040780013003700f2
:100aec0011168000000820000080600000f0a700b4
:100afc000000ea000000e9004f00de000040780032
:100b0c000a003700a116800000002200008060005f
:100b1c0000f0a7000000ea000000e9004f00de0032
:100b2c0000407800010037000040eb000080fa0024
:100b3c00000006000200fa00000f78001e0078008a
:100b4c00e20f50000c003200e20f500003003e0098
:100b5c00e10f5000060032000d003700e30f50008b
:100b6c0007003200e40f5000070032000800370085
:100b7c00d2c2a80006003700d2e2a8000400370059
:100b8c00c0e2a80002003700d3a2a80000000000b9
:080b9c000080fa0000000600d1
:020000040000fa
:100ba400f03fb1000180b10006003500ee030900fa
:100bb40000000000403fb1000180b100fbff3d0098
:100bc4001000b000203fb000020035000080090092
:080bd400000000000000060013
:020000040000fa
:020000040002f8
:04aff8009dfa0000be
:020000040000fa
:020000040002f8
:04affc007f3f000093
:00000001FF
